:020000021000EC
:10000000C0100020F51401003F3F0100C914010099
:10001000C9140100C9140100C91401000000000046
:10002000000000000000000000000000C5110100F9
:10003000C91401000000000071110100C914010081
:100040007512010075120100751201007512010090
:100050007512010075120100751201007512010080
:100060007512010075120100751201007512010070
:100070007512010075120100751201007512010060
:100080007512010075120100751201007512010050
:100090007512010075120100751201007512010040
:1000A0007512010075120100751201007512010030
:1000B0007512010075120100751201007512010020
:1000C0007512010075120100751201007512010010
:1000D0007512010075120100751201007512010000
:1000E00075120100751201007512010075120100F0
:1000F00075120100751201007512010075120100E0
:1001000053B94AB9002908BF00281CBF4FF0FF317E
:100110004FF0FF3000F00CB8ADF1080C6DE904CEE3
:1001200000F008F8DDF804E0DDE9022304B07047D0
:10013000704700BF2DE9F04786468C460846089E6A
:10014000154674461946002B40F0C2808542B2FA2B
:1001500082F245D94AB1C2F1200300FA02FC2EFA1C
:1001600003F3954043EA0C0C94404FEA154EA8B2B5
:10017000BCFBFEF8230C0EFB18CC08FB00F943EA8D
:100180000C43994528D9EB1808F1FF3704D299455B
:1001900002D9A8F102072B44A3EB0903A4B2B3FBD5
:1001A000FEFC0EFB1C330CFB00F044EA0344A042AF
:1001B00014D92C190CF1FF3304D2A04202D9ACF1AE
:1001C00002032C44241A43EA07401EB1D440002302
:1001D00034607360BDE8F0874746DDE76346F1E7CA
:1001E00092BB431B01214FEA154EAFB2B3FBFEFC9D
:1001F000200C0EFB1C330CFB07F840EA0343984528
:1002000062D9EB180CF1FF3004D2984502D9ACF159
:1002100002002B44A3EB0803A4B2B3FBFEFC0EFBCD
:100220001C330CFB07F744EA0344A7424ED92C19B0
:100230000CF1FF3304D2A74202D9ACF102032C44E3
:10024000E41B43EA0040C0E7C2F1200320FA03F1B7
:10025000954090402EFA03F303434FEA154EAFB298
:10026000B1FBFEFC0EFB1C10190C0CFB07F841EA5D
:100270000041884504FA02F422D969180CF1FF30D4
:1002800004D2884502D9ACF102002944A1EB08014F
:100290009BB2B1FBFEFC0EFB1C110CFB07F743EA03
:1002A00001439F420ED9EB180CF1FF3104D29F425B
:1002B00002D9ACF102012B44DB1B41EA004192E779
:1002C0006046E3E76146F7E76046A3E76346B7E7C2
:1002D000834206D916B9002108467BE7C6E900E04B
:1002E000F9E7B3FA83F78FB9834201D3724508D88F
:1002F000BEEB020460EB030301209C461EB9002103
:1003000068E73846FAE7C6E9004CF8E7C7F1200C81
:10031000BB4022FA0CF41C432EFA0CF120FA0CF329
:10032000B84001434FEA14490EFA07F5B3FBF9F858
:100330001FFA84FE09FB18300B0C08FB0EFA43EA87
:1003400000439A4502FA07F240D9E31808F1FF305A
:1003500004D29A4502D9A8F102002344A3EB0A0370
:1003600089B2B3FBF9F809FB183308FB0EFE41EA2A
:1003700003418E452CD9611808F1FF3304D28E4514
:1003800002D9A8F10203214443EA0040A0FB0298ED
:10039000A1EB0E014145CE46434602D306D14D4561
:1003A00004D2B9EB020E68EB04030138002EA6D08C
:1003B000B5EB0E0261EB030101FA0CFC22FA07F324
:1003C0004CEA0303F940C6E9003198E74046C5E727
:1003D0004346D9E738B5104C204603F0B8FFC8B102
:1003E0002269A568136843F0807313602B680B4A79
:1003F00018212046984700280CDB4FF080716B696C
:1004000020469847002805DB002140F6CD4003F048
:100410005BFAF2E738BD00BF1C4601000100060090
:10042000014B1B68184700BF00000020014B1860FB
:10043000704700BF0000002007B50B4600210246B0
:100440000091034800F014F903B05DF804FB00BF0D
:10045000210401002DE9F047058B0446280790464A
:1004600011D4022905F0070540F0CD80204603F0A5
:1004700025FC78B10138218B042811D8DFE800F081
:10048000C3106D85950001290CBF45F0100545F09E
:100490002005258388F31188BFF36F8FBDE8F087AF
:1004A00001F0070AAA4500F0A6800027B9463E469B
:1004B000A368002B00F0BD8041F00801218388F380
:1004C0001188BFF36F8FA168002900F0BB800D6811
:1004D000002900F0B780D1F8048033465246204608
:1004E000C047002D76D02B6829461D46F0E701F065
:1004F00007035A1F012A1BD8002221F00701062BEF
:10050000276889B2C4E9002209D13B4603E0628B27
:10051000013262831B68002BF9D141F00201218373
:10052000204603F0CBFB00287BD041F0200177E090
:10053000042B0AD121F0070189B22183204603F060
:10054000BDFB10B141F020012183218B01F0070A8E
:10055000AA4550D00027B946AAE7236921F0070130
:1005600041F00601062DD3F8009021832DD1B9F179
:10057000000F40D041F00801218388F31188BFF3B8
:100580006F8F3A492046C84729E021F007012369C7
:1005900041F0040189B2042DD3F804902183E6D000
:1005A00000273E464FF0040A82E721F00701236945
:1005B00041F0050189B2052DD3F808902183D6D0EA
:1005C00000273E464FF0050A72E700273E464FF0EF
:1005D000060A6DE72B4687E7B9F1000FD1D14FF03E
:1005E0002003EFF3118883F31288BFF36F8F238BFF
:1005F00023F008032383258BEA062ED525F010036C
:10060000238305F007056669218B002EBFF66FAFC7
:1006100000232768C4E9003321F0070141F00101FC
:100620002183218B01F0070AAA454FF000097FF4CE
:100630003FAF002F9BD041F00801218388F3118840
:10064000BFF36F8F002FC7D03D68394633465246FF
:10065000204603F05FFB2F46F4E7AB067FF51AAFA9
:1006600025F02003238305F00705FFE6413D010047
:100670002DE9F04F814695B08B4617461C46002564
:10068000387808B9284658E37B1C2528039306D000
:100690005946C8470028C0F250830135FBE11822B3
:1006A00000210EA803F06DFC7B78252B7DD0002364
:1006B000781C98469E469C461E46014610F8012B23
:1006C0002B2A00F0A18000F29880202A00F09F8061
:1006D000232A00F09F802BB19DF8403043F0400367
:1006E0008DF84030B8F1000F05D09DF8403043F050
:1006F00020038DF84030BEF1000F05D09DF840304A
:1007000043F010038DF84030BCF1000F05D09DF888
:10071000403043F008038DF840302EB19DF8403052
:1007200043F004038DF840309DF8403003F044005E
:10073000442803D16FF386138DF840309DF8403084
:100740002A2A43F080038DF840307FD19DF8412064
:1007500042F001024B1C8DF841201A782E2A9DF898
:1007600041200CBF0121002161F341028DF841209D
:1007700078D15A782A2A6ED0013300224FF00A0C21
:10078000194611F8010BA0F13006092E40F29580B0
:100790009DF840101292C1F3400040EAD2700A4620
:1007A00060F341028DF840205CE0BA1C03928DF8A2
:1007B00043309DF84130DA0740F12E8154F8048B24
:1007C000B8F1000F07DA9DF8402042F004028DF8DE
:1007D0004020C8F100085E0740F1278154F804ABBF
:1007E000BAF1000F80F226819DF841306FF341038A
:1007F0008DF841304FF0FF3A1CE12D2A0DD0302A00
:100800007FF469AF012358E74FF0010C55E74FF033
:10081000010E52E74FF001084FE701264DE70EFBAE
:100820000262303A0346184610F8016BA6F1300C0C
:10083000BCF1090FF3D999428FD09DF84010119265
:10084000D20F62F341018DF8401086E70B4600227B
:100850004FF00A0EE7E79DF8412042F004028DF8C0
:10086000412002331A786C2A47D02BD8682A31D01D
:100870006A2A4BD04C2A51D01A4612F8013B0392F7
:10088000782B9DF841208DF8433000F2BE806D2B0F
:1008900051D8692B00F2B980572B67D8412B03D070
:1008A000453B022B00F2B1809DF84230042262F3F6
:1008B00002038DF84230012373E00CFB0202303A50
:1008C0000B465DE7742A25D07A2AD5D19DF84120C0
:1008D00006210CE05A78682A9DF8412006D10121B2
:1008E00061F3C6028DF841200233C5E7022161F3AE
:1008F000C6028DF841200133BEE75A786C2A9DF874
:10090000412001D10421EBE70321F0E79DF84120CC
:100910000521ECE79DF841200721E8E7BDF84020DC
:1009200022F4F04222F0020242F4804242F002023B
:10093000ADF84020DFE76E3BD9B201238B4040F297
:1009400082410B4237D113F0240F51D1D8075CD527
:100950009DF84230032161F302038DF8423002F02A
:100960007803A3F140014B424B411AE0A3F1580137
:10097000C9B2012000FA01F111F4624F94D140F69E
:10098000010631421DD111F4043F3ED09DF84230A2
:1009900060F3020302F07802402A8DF8423034D02E
:1009A00000239DF84020C2F340010B4363F3410252
:1009B0008DF84020FDE69DF84230022161F30203EC
:1009C000E8E79DF84210022002F0780260F302018D
:1009D000402A8DF8421002BF9DF8401041F00101FD
:1009E0008DF84010632BDBD1131E18BF0123D8E70D
:1009F0009DF84230032161F3020312F0780F8DF865
:100A0000423014BF01230023CBE79DF8403043F070
:100A100001038DF84030C3E79DF94020002AB4BFA0
:100A2000DDF844804FF0FF38D5E698077FF5E2AE59
:100A3000DDF848A09DF841100023CDE911339DF861
:100A4000423003F00703012BC1F3C30133D1CB1EA6
:100A5000042B04D8DFE803F0214646212100236857
:100A600001294FEAE372CDE90E321CD19DF93830ED
:100A7000DA17CDE90E3204349DF8403013F0030646
:100A800050D0039B3A465946484603F036FA0028B0
:100A9000C0F253810544039FF2E554F8043BDA1792
:100AA000CDE90E32E8E70229E5D11AB243F3C033AB
:100AB000CDE90E23DFE7022B24D1CB1E042B04D873
:100AC000DFE803F0181010181800012954F8043B4F
:100AD0004FF0000214D00229CDE90E32CCD19BB2E6
:100AE0000E93C9E7073424F00704F4E80223CDE9A4
:100AF0000E23C1E754F8043B0E9300230F93BBE78A
:100B0000DBB2CDE7042B08D1073424F00704D4E985
:100B100000230834CDE90E23AEE7032BACD154F803
:100B2000043BDDE79DF843007828B4D862281CD840
:100B300025283FF4ADAD5828ADD10DF13603009313
:100B4000DDE90E0108AB10AA03F091F9BAF1000F2C
:100B5000074680F29A80002F9DD00DF13603D81BF6
:100B6000002E00F0C1800130BEE06338152892D815
:100B700001A252F820F000BF4D0C01005F0C0100F3
:100B8000970A0100970A0100970A0100970A0100DD
:100B90005F0C0100970A0100970A0100970A010003
:100BA000970A0100ED0C0100850C0100AB0C01005F
:100BB000970A0100970A0100D10B0100970A010072
:100BC000850C0100970A0100970A0100850C0100BD
:100BD000BAF1000F0E9F35DB5146384603F0BDF9E0
:100BE00007EB000A002F3FF456AF00269DF8423075
:100BF00013F01002059200F0938002305B06119A08
:100C000048BF129B0492104448BFC018B8F1000FAF
:100C100040F3A0809DF84020A8EB0008C2F38003B9
:100C20005007069300F19680510640F189803EB14D
:100C300059463046C84700287FDB069B01351E46D3
:100C400030227EE0384603F081F9C9E70E9B8DF82B
:100C50002030002608AF0DF1210A0120C6E7190750
:100C60005CBFC3F300135E01DDE90E2348BF2B26F2
:100C7000002BBFF662AF524263EB4303CDE90E2374
:100C80002D265AE7002658E700269DF840200DF152
:100C90003603DB1B6FF386129A458DF840207FF6F2
:100CA0005AAFAAEB0303119355E70E9890B30DF1D9
:100CB0003603009310AA08AB002103F0D8F8BDF862
:100CC000423003F0EF0343F4F04343F01003BAF172
:100CD000000F0746ADF84230D6DA00283FF4DBAE0D
:100CE0000DF13603181A00269A467FE70E9B072956
:100CF0003FF6D1AEDFE801F00C04060C08080C0C3E
:100D00001D70C8E61D80C6E6EA17C3E90052C2E6B8
:100D10001D60C0E62E4F064607F1050A052065E76F
:100D20001A0748BF013069E70793104606925946F3
:100D3000C8470028DDE9062304DA15B0BDE8F08FC6
:100D4000202243461946002903F1FF33ECDC4544D9
:100D50006D1A98462EB159463046C8470028ECDB3C
:100D600001359DF84230DA0601D41B0705D55946F6
:100D70003020C8470028E0DB0135059B33B19DF8E2
:100D800043005946C8470028D7DB0135049E2E444E
:100D900005E059463020C8470028CEDB0135731BDB
:100DA000002BF6DC53463A465946484603F0A5F870
:100DB0000028C2DB0544A844A8EB0503002B7FF7FD
:100DC0006AAE59462020C8470028B6DB0135F3E754
:100DD0000049010001F0E2BB2DE9F84305464FF060
:100DE0002003EFF3118683F31288BFF36F8F0E4B4E
:100DF0000E4F1C68DFF838804FF00C092CB986F3D1
:100E00001188BFF36F8FBDE8F883D4E90123002D6B
:100E100018BF13462BB198F8142009FB02F2B85CF6
:100E200098472468EAE700BFE8010020DC010020C1
:100E30009802002070B5194B1C7DBFF35B8F04F046
:100E40001F0301229A40164B610903EB8103D04333
:100E500053E8001F01EA000543E80056002EF7D1D1
:100E6000BFF35B8F0A4213D00E4B0F4D8BB10C2397
:100E70006343EA18E85C517803F09BF80020FFF721
:100E8000ABFF0C235C432A1900232B51C2E9013329
:100E900070BD83F31188BFF36F8FEFE798020020D6
:100EA000F0010020B33F0100DC0100202DE9F041FA
:100EB000354B07461D7D4FF02003EFF3118883F378
:100EC0001288BFF36F8F0C24304B314E6C431A19CC
:100ED000195D00294CD007CA06EB040C8CE807000A
:100EE00000221A5588F31188BFF36F8F0C236B43D0
:100EF000F218F05C002839D07B1C10D0D2F808C062
:100F0000244C254A4FF400400021ECFB0041002313
:100F10002046FFF7F5F80121381A03F01FFB02F015
:100F200015FC0120FFF758FFBFF35B8F1B4B6A09CD
:100F300003EB820305F01F0101228A4053E8000FF2
:100F4000104343E800010029F8D1BFF35B8F144B35
:100F50003BB10C2303FB05F03318305C597803F0E8
:100F60001CF8FFF767FF02F005FC0120BDE8F081E7
:100F70000146284600F016F80028B3D007C83444CC
:100F800084E80700AEE700BF98020020D0010020EF
:100F9000DC0100203F420F0040420F00F001002022
:100FA0009B3F01002DE9F04F85B00E4603A900F0EC
:100FB00043F81E4B039DD3F800A0DFF87480431E56
:100FC0001BB203EB4303044605EB83054FF40047D4
:100FD0004FF0000B24B9A146484605B0BDE8F08F9C
:100FE0006868144AC4465946E0FB07C100236046BE
:100FF000FFF786F80190A8680E4AC4465946E0FB00
:1010000007C100236046FFF77BF8BAF1FF3FA9460E
:1010100001D0824505D9731CDED0019B1844B04233
:10102000DAD9013CA4B20C3DD4E700BF0400002093
:101030003F420F0040420F0008B9024B0B600020F6
:10104000704700BFF8470100014910220A6070474D
:1010500010ED00E072B6404080F31188BFF36F8F4F
:10106000BFF34F8F30BF62B6BFF36F8F704700BFC3
:1010700072B6494081F3118820BF80F3118862B6AF
:10108000704700BF40B2002807DB044A4109012332
:1010900000F01F00834042F82130704700E100E07B
:1010A000054B420900F01F0053F82220012303FAE8
:1010B00000F01040704700BF00E100E040B200289F
:1010C000A8BF00F1604001F10101B8BF064B4FEA33
:1010D0004111ACBF00F5614000F00F00C9B2B4BFD0
:1010E000195480F80013704714ED00E030BFFFF78B
:1010F000FDBF00BF0F4A08B50F4B22F07F029A6078
:10110000BFF34F8FBFF36F8FD3F8882022F47002A4
:10111000C3F88820EFF3148323F0040383F31488C7
:10112000BFF36F8F01F0AAFF02F04EFC00F0D6F97A
:1011300001F0E8FF0000010000ED00E0094A0A4963
:10114000936809689967094958674B6843F0805369
:101150004B60002383F31188BFF36F8F9368986F00
:10116000704700BF98020020E448010000ED00E055
:1011700012498A684FF030001044EFF3098C80E880
:10118000F01F202080F31288BFF36F8F0C4F4FF0B9
:101190000066CA698A603E60506F0023536780F31F
:1011A000118804B5104600F0DFF9BDE8044002F1F3
:1011B000300090E8F01F8CF30988704798020020F7
:1011C00004ED00E01EF0040F0CBFEFF30880EFF316
:1011D0000980816911F8021C0229FFD001B502F0D3
:1011E000A6FE01BD42F8203C009B42F81C3C0A4987
:1011F000019B42F8183C029B42F8143C21F001018B
:101200004FF0807342F8043C42F8081C0023203A57
:1012100002654367704700BFA93C0100094A0346C5
:10122000906870B113F1160F406E05D0A0F1400226
:101230009A4205D8834203D2814228BF00207047DA
:10124000002070479802002008B5094B98600D46B1
:10125000144600F089F9204685F30988002163B619
:1012600081F31188BFF36F8F0022002302F01CFD71
:101270009802002001B572B60B4A906900281EBF83
:101280000021916103F09FF862B6EFF30580A0F1B1
:1012900010004FEAC0000549014409C99847BDE85C
:1012A0000140034908470000980200204C46010015
:1012B000B5120100044B9968D869884203D00349EC
:1012C0004FF080520A6070479802002004ED00E061
:1012D00070B51D4B15469A6A9A6A9A6A9207064635
:1012E00022D5586B9A6A14061ED519B19A6A22F053
:1012F00080029A629A6A9A6A9A6A134C12F0100FE4
:1013000015D19B6A990712D40020A36A0E4A9B0646
:1013100042BF636A23F400536362936A43F0FF039E
:10132000936200232B7070BD6FF01500E2E76368D5
:101330001A05E9D53146FFF771FF0028E4D080F3A4
:1013400009880220E1E700BF00ED00E00D4B9A6A3A
:101350009A6A9A6A920508D59A6B9A6A120404D519
:1013600018B19A6A22F400429A629A6A9A6AD2057D
:10137000044A58BF9B6A936A002043F47F439362F8
:101380000870704700ED00E070B54A4B5B688AB0AA
:101390000546C3F30803002686F31188BFF36F8F59
:1013A00002F07F40B0F17F4F11D102F00C0008280D
:1013B0000DD010074CBF0D4601260022033B8DF8CF
:1013C0000720032B4DD8DFE803F00465696D35462F
:1013D000F3E7384BDA6A910743D4DA6A002A40DB34
:1013E000DA6A52003DD55A69A96942F480725A619D
:1013F000BFF34F8FBFF36F8F5A6931F8021C22F48D
:1014000080725A61BFF34F8FBFF36F8F4DF6027238
:10141000914209D09A6AD2B242B10DF1070201217C
:101420002846FFF755FF0AE02C681BE09A6A12F481
:101430007F4F06D00DF107010120FFF787FF04461B
:1014400010E09A6AB2F5803F0BD39A6A9A6A9A6A58
:101450009A6A9A6A9A6A9A6A6FEA02426FEA124232
:101460009A6200249DF8073093B92022294602A8E9
:1014700002F07CFD099BBEB1C3F3080222B96FEAFA
:1014800053236FEA4323099302A9204602F04DFD3E
:101490000AB070BD0DF107020021C1E70DF107018F
:1014A0000020CAE7034BD0E723F4FF7323F00103C6
:1014B000E9E700BF00ED00E0024A536943F0100382
:1014C0005361704700ED00E0EFF30880EFF309810E
:1014D00001B57246FFF758FF01BD00BF0448002365
:1014E0002021C2180133302B82F80013F9D1704744
:1014F00000E100E0FFF76EFC202080F3118808482F
:101500004FF40461401880F30988EFF3148002213E
:10151000084380F31488BFF36F8FFFF7EBFD0000E3
:1015200000030020084B9B6883420BD1EFF3058337
:1015300043B1064B5A6842F080525A605A6A22F40C
:1015400000425A6202F0E0B99802002000ED00E08B
:10155000024B034A0348012100F070B80000042048
:1015600000000020F8470100426E054B403A1A6027
:10157000044A4021C3E901121846012100F068B86D
:10158000F401002000000B15F0B5204E00258D421F
:1015900039DA446874B353B104F1FF3C14EA0C0F18
:1015A0002FD11F2C2DD907681CEA070F29D1202C19
:1015B0000768D0F808C05FFA82FE1ED9B4F1004F68
:1015C0001DD8013CB4FA84F4C4F11F046400BEF1D8
:1015D000070F4CEA040C14D827F01F04144344F0FE
:1015E0001004C6F89820C6F89C404CF00104C6F8D8
:1015F000A040013201350C30C9E70824E7E73E245A
:10160000E5E76FF015021046F0BD00BF00ED00E009
:10161000044B0522C3F89420BFF34F8FBFF36F8FA5
:10162000704700BF00ED00E0BFF35F8F024B002268
:10163000C3F89420704700BF00ED00E010B5034CE4
:1016400001232278FFF7A0FF207010BDD0020020F8
:1016500008B5094A00231278FFF796FF10F1160F1C
:1016600002D0064A072800DD08BDC2F89800C2F87B
:10167000A0300130F6E700BFD002002000ED00E00E
:1016800014490868082810B521D8FFF7CDFF124C7F
:1016900049680022904201F10C0105D10F4B1870EE
:1016A000FFF7B6FF002010BDC4F8982051F80C3C9D
:1016B00023F01F03134343F01003C4F89C3051F888
:1016C000043C43F00103C4F8A0300132E2E74FF0DC
:1016D000FF30E8E70448010000ED00E0D002002000
:1016E000014B1860704700BF080000204FF0200237
:1016F000EFF3118382F31288BFF36F8F044A012145
:10170000C2F8401583F31188BFF36F8F0020704734
:1017100000E0014020B1034B800143F00103184772
:10172000704700BFF047010008B50D4802F00FFEFA
:1017300010B96FF0120008BD094802F008FE002839
:10174000F7D008484FF4202102F039FC0028F2D1EC
:10175000BDE8084004484FF4B01102F030BC00BFAF
:10176000044601002C48010024480100084B70B5D4
:10177000C31A0D4607499B100446594306484022A8
:1017800002F058FC2B4601462046BDE87040184741
:1017900014020020B76DDBB6EC45010073B50C4CAC
:1017A0000C4A4023041B00930D460B460A49A41023
:1017B00061430646094802F06AFC011E05DA30461C
:1017C0002B4602B0BDE87040184702B070BD00BFA4
:1017D00014020020FB400100B76DDBB6EC450100B0
:1017E000002270B5012104461046FFF767FC0F4840
:1017F00001F05CF80E4B984215D102F004FD266909
:101800000C49304602F0AAFA00280BDB01253564AA
:101810002469084904F11C0002F0A0FA002801DB49
:10182000E564002070BD6FF00400FBE76D18010057
:101830000000AD0B3448010070B501460C23094887
:101840004B43C418D4E90E5600224033A263184417
:1018500002F0DDFB2DB132462B460348BDE8704057
:10186000184770BD14020020EC45010010B101289A
:1018700004D07047034B1B6C5B0701D1FFF7DCBF43
:10188000704700BF1402002008B54FF02003EFF3AB
:10189000118183F31288BFF36F8F124A136843F0EC
:1018A00002001060DA0708D481F31188BFF36F8F4C
:1018B0000120BDE8084002F0B3BC4FF08043D3F8EC
:1018C0000C24D3F80C34D307EED5074802F09FFB65
:1018D00081F31188BFF36F8F0020BDE80840FFF748
:1018E000ABBF00BF64020020540200201FB50022DD
:1018F0000123CDE90223094ACDF800D06B46CDF88B
:1019000004D002F0F3FB002805DB4FF480420023F3
:10191000684601F02FFD05B05DF804FB1941010098
:1019200010B54FF02003EFF3118483F31288BFF357
:101930006F8F074A136823F00201DB07116002D49E
:10194000012002F0A9FC84F31188BFF36F8F10BD52
:10195000640200202DE9F0413849BFF35B8F074650
:10196000012251E8003F41E800200028F9D1BFF3EF
:101970005B8F33B9324933484B60CB608A6002F0E9
:1019800000FA7B1E012B2BD8012F07D14FF080438B
:10199000D3F81C3403F00303012B21D002F00DFD1A
:1019A0000546F8B9284B1B78E3B14FF0804302227B
:1019B000C3F808230646DFF894804FF08044D4F83B
:1019C0001834D4F81824D20316D503F00303012BDE
:1019D00001D0012F10D15DB386F31188BFF36F8F53
:1019E000BDE8F0814FF02003EFF3118683F31288F6
:1019F000BFF36F8F0125DEE7ADB13046FFF738FB4F
:101A0000D4F81835002BDAD1D4F80421002AD6D026
:101A1000C4F80431D4F804310123C4F81835C8F8E7
:101A20008031A360CBE70021212001F04DFFE7E7E3
:101A30004FF080430222C3F80423D1E710020020B4
:101A40000002002030020020D102002000E100E06E
:101A500008B5074802F07BFC38B10648FFF740FEA6
:101A60000448FEF7E3FC002008BD6FF01200FBE71E
:101A700034460100791A01000A2838B5074D04469A
:101A800004D1AB680D215B6828469847AB680348D2
:101A90005B68E1B29847204638BD00BF344601007C
:101AA00030B54068057B01F01F04B2F5001F85B01A
:101AB00044EA451405D1204601F07AF9002005B02A
:101AC00030BD0025B2F5800FCDE9025514D1B3F138
:101AD000007F0CBF042305238DF80830002319462E
:101AE00002AA204600F0A2FF1F4B984239D10121E3
:101AF000204601F015F9E1E7B3F1C06F26D0B3F14C
:101B0000007F14BF012302238DF808308368CB4087
:101B1000D907E3D4B2F1A07FE0D16209012A04F031
:101B20001F03124A03F5E07318BF4FF0A04252F8AA
:101B30002330DB07D2D40DF107052946204601F0FA
:101B40009BF80B4B984203D00395C7E70323DBE7D1
:101B5000284601F0DFF8044B9842F5D06FF00B00F7
:101B6000ADE76FF01500AAE70000AD0B00030050D1
:101B70000400AD0B10B501F0BDF8044668B901F0E2
:101B800091F8084B98420AD10748214601F06EF8B7
:101B9000224605210620FFF791FA002010BD6FF0C4
:101BA0000400FBE70000AD0BAD1B0100420970B55E
:101BB000034602D0012A17D070BD0D4E326951681C
:101BC0000029F9D003F01F0301250C689D4000296E
:101BD000F2D08A682A4002D04B68304698472CB130
:101BE000236821461C46F2E7024EE7E72346F8E762
:101BF0001C460100044601002DE9FF4147683B7B7C
:101C000001F01F0545EA43150E4628460DF1030174
:101C1000144601F031F814F4403F80460BD12846B9
:101C200001F0EEF83D4B984503D19DF8030001F01B
:101C30006BF800200CE00023194602AA2846CDE9E3
:101C4000023300F0F3FE354B984204D06FF01500DC
:101C500004B0BDE8F081804503D19DF8030001F098
:101C600053F8A3034BD540F206332340B3F5837FEB
:101C700019D00CD8062B17D004D8ABB1022BE5D164
:101C8000042311E0B3F5807FE0D101230CE040F2A2
:101C90000222934227D0B3F5407F26D0B3F5007FD0
:101CA000D4D1022300E007238DF8043084F480337C
:101CB000C3F30043E0068DF8053054BFC4F340136E
:101CC000032321038DF8063011D57A680123B34030
:101CD000C2F80835002201A9284600F055FF0F4B35
:101CE0009842A6D0B2E70523DEE70323DCE76203D0
:101CF00041BF01237A68B340C2F80C35EAE7E30636
:101D00004FF0000354BFC4F3401403241A4601A942
:101D100028468DF8044000F089FEE0E70000AD0B96
:101D2000074BD3F8082142B10020C3F80801D3F8CB
:101D30000821D3F818350B7070474FF0FF3070470B
:101D400000200040024BD3F88004C3F880047047A1
:101D50000020004030B54B79012B22D0032B1DD140
:101D600010258B79032B19D1CB79BBB90A7912B124
:101D7000022A13D10E220B68B3F5164F61D02DD86D
:101D8000B3F5165F5FD016D8B3F5966F5DD00AD85D
:101D9000B3F5967F5CD0B3F5167F5CD06FF085000D
:101DA0004EE00025DDE7B3F5166F57D0B3F5965F2B
:101DB000F4D1344B39E0B3F5E14F52D007D8B3F545
:101DC000615F50D0B3F5964FE8D12F4B2DE047F629
:101DD0001224A342E2D14FF4000326E0B3F5613FA1
:101DE00044D011D8B3F5963F42D008D84DF6C02460
:101DF000A3423FD0B3F5614FD0D1244B15E0B3F5EA
:101E0000E13FCBD1224B10E0B3F5612F35D007D89D
:101E1000204CA34233D0B3F5E12FBFD11E4B04E0D9
:101E20001E4CA342BAD14FF0805304691C482A4388
:101E3000C0F82435C0F86C2503C984E803000020ED
:101E400030BD184BF1E7184BEFE74FF49E23ECE75A
:101E50004FF4A033E9E74FF41C33E6E74FF41D23BA
:101E6000E3E7124BE1E74FF46C13DEE7104BDCE7DE
:101E7000104BDAE74FF46503D7E70F4BD5E74FF088
:101E80008063D2E700B0130000A04E0000F0EB002A
:101E900000E0D70190D0030000705F0740420F00C0
:101EA0000020004000509D000050270000F0750009
:101EB00000B0AF0300903A0100D0BE0EF7B5134C4E
:101EC000436807690021C4F800151E68054601AA89
:101ED000304602F082F9002815DB019B326819793F
:101EE000186800F0A1FA00280DDB39462846FFF7F4
:101EF00031FF40B90423C4F80035C4F80801D4F810
:101F000008310123236003B0F0BD00BF0020004072
:101F1000F8B50E4602F051FA1A4D78BB6424012739
:101F2000BFF35B8F55E8003F002B03D145E80072FB
:101F3000002AF7D1BFF35B8F07D021200021013C9D
:101F400001F0C2FC14F0FF04EAD10F4C0023C4F8E6
:101F50001C31D4F81C310123A360C4F81C654FF474
:101F60007A76D4F81C3123B9012002F04AF9013EF7
:101F7000F7D10123E36000232B60F8BD01232B6020
:101F8000E3E700BF800200200020004070B501237D
:101F900083400E4ABFF35B8FDC4352E8001F01EA27
:101FA000040542E80056002EF7D1BFF35B8F4FF4D3
:101FB000803282400648C0F80823BFF35F8FBFF32A
:101FC0006F8F0B4214BF0120002070BD88020020DB
:101FD00000100140F8B51B49044622F07F4508680F
:101FE000C1E90023A5F50013101AB3F5400F0FD374
:101FF00001F0D0FDA30003F1804303F58833D3F84B
:10200000402595421DD14FF40002C3F8402512E04F
:102010000D4B1B681A0A1B065E190C4B42F1000798
:10202000C3E9006701F0B6FD094A04F5A87352F848
:1020300023309D4205D1064A4FF48033A340C2F8B5
:102040004433F8BDB80000208C020020C0000020FE
:102050000010014011B3BFF35B8F0123104A83408E
:1020600052E800CF4CEA030C42E800C10029F7D146
:10207000BFF35B8F0B4A4FF480338340C2F80433C5
:10208000094BBFF35B8F1B68BFF35B8FC340DB075C
:1020900042BF064B4FF40032C3F80021704700BF27
:1020A00088020020001001408402002000E100E0CE
:1020B0000D4B1868010A0006BFF35F8F0B4BD3F876
:1020C0000435181841F10001B3F5801F0AD2084BFE
:1020D000D3E90023904271EB030303D210F1807027
:1020E00041F10001704700BF8C0200200010014048
:1020F000C00000202DE9F04F85B014461D4607466C
:10210000FFF744FF0190FFF7D3FFA04271EB0503F7
:1021100080F08180494B201A65EB0101984271F1F2
:10212000000180F08780464B03EB0713D3E90223BD
:102130009D4208BF944259D04FEA870909F180496E
:1021400007F1500809F588394FEA88081FFA88F81E
:102150004FF48033BB4024F07F4B08F18048D9F81E
:102160004005384A029308F588385E460223D2F8C3
:1021700004A5A0EB0A0020F07F402AF07F4101284F
:10218000C9F8401505D10393132002F007FA2D4A30
:10219000039B0299A6EB0A00023820F07F40B0F5BD
:1021A000000F4FF00000C8F8000088BF0AEB0306DC
:1021B000D8F80000C2F8441326F07F40C9F8400563
:1021C000D2F8040588BF0133824506D0301A0238A0
:1021D00020F07F40B0F5000F1BD8A6EB0B0626F0D1
:1021E0007F46361945F1000334461D4614490E98C2
:1021F0003B0101EB0712C8500F9B5360C2E9024537
:10220000002438460199FFF725FF204605B0BDE8B8
:10221000F08F3046ABE701230B4ABFF35B8FBB4027
:1022200052E8000F184342E800010029F8D1BFF33B
:102230005B8FDBE76FF01504E3E700BF01000001EF
:10224000A8000020001001408402002073B5194B43
:10225000194D00244FF0FF304FF0FF31C5F808450D
:10226000C3E902014FF48033C5F80433134B02264F
:102270004FF400320121C5F804631120C3F8802116
:102280002246FEF71BFF1120FEF7FCFE0C4A01233D
:10229000AB602B6013600B4B0B4A0093019400233F
:1022A0002046FFF727FF3046FFF754FB204602B0D9
:1022B00070BD00BFA80000200010014000E100E058
:1022C00088020020D51F0100FFFF7F002DE9F743A2
:1022D000334CD4F804339A070BD5D4F8043143B106
:1022E000304A0023C4F80431D4F8043113680133B0
:1022F00013604FF02003EFF3118283F31288BFF3D2
:102300006F8FD4F80433DB0329D5BFF35B8F264BE3
:1023100053E8001F21F0010043E80005002DF7D12C
:10232000BFF35B8F11B9D4F84031C3B10025C4F8B5
:102330004051D4F8403182F31188BFF36F8FFFF71B
:10234000B7FE4FF02003EFF3118283F31288BFF33F
:102350006F8F164BD3E90267B042B94106D282F3C0
:102360001188BFF36F8F03B0BDE8F0834FF0FF38E3
:102370004FF0FF39D3E90010C3E902891D604FF423
:102380008033C4F8483382F31188BFF36F8F00297C
:10239000E9D0009032463B4628468847E3E700BF35
:1023A000001001408C02002084020020A8000020C0
:1023B000431C13B521D0012821DDB0F5000F20DA30
:1023C000441EFFF775FE104BD3E90013421AB2F515
:1023D000000F0E4828BF002401322244824228BF49
:1023E000024652184FF0000009490190009143F154
:1023F0000003FFF77FFE02B010BD0448E0E70024B1
:10240000DFE7024CDDE700BFB8000020FFFF7F00E0
:10241000D51F010008B5FFF74BFE024B1B68C01A21
:1024200008BD00BFB80000202DE9F0414D4E00EB83
:1024300081010127814202D10020BDE8F0810568B9
:1024400005F07F03C5F343247F2B4FEA154508BFF2
:102450004FF0FF33192D00F28180DFE805F00D1FEA
:1024600024272A3E277F7F7F7F426B7F7F7F7F7F6E
:102470007F7F7F7F6E76797CC2F80C354FEA531CE4
:10248000BCF1010F03F01F0514BF4FF0A04CB44680
:1024900007FA05F5CCF80855012502E0C2F8143515
:1024A0000025AE4624E0C2F80835E7E7C2F810354B
:1024B000F6E7C2F8083500254FEA531EBEF1010FBA
:1024C00014BF4FF0A04EB64603F01F0C07FA0CFCE9
:1024D000CEF80CC54FF0010E0AE0C2F80C3501250C
:1024E000EAE7C2F80835002CDAD10025AE4606240A
:1024F00050F804CB0CF40058B8F1000F4FEA042454
:10250000CCF3C11803F01F0C4FEA53131CBF012575
:102510004FF0000E44EA8804012B0CBF33464FF005
:10252000A04344EA0E040CF5E07C44EA450443F879
:102530002C407FE7C2F80C35D5E7C2F86035056856
:10254000C5F38035002DCAD098E7C2F86435F6E7A8
:10255000C2F86835F3E7C2F86C35F0E76FF0850034
:102560006BE700BF000300504FF08053D3F83021D9
:10257000082A06D1D3F83431052B02D8024AD05CA0
:1025800070470020704700BF54490100024AD2F84A
:102590000034002BFBD0704700E0014010B54FF035
:1025A0008053D3F83021082A4ED14FF080420021C9
:1025B000C2F80C11C2F81011C2F8381502F54042E9
:1025C000D3F80414C2F82015D3F80814C2F824155F
:1025D000D3F80C14C2F82815D3F81014C2F82C152F
:1025E000D3F81414C2F83015D3F81814C2F83415FF
:1025F000D3F81C14C2F84015D3F82014C2F84415BF
:10260000D3F82414C2F84815D3F82814C2F84C158E
:10261000D3F82C14C2F85015D3F83014C2F854155E
:10262000D3F83414C2F86015D3F83814C2F864151E
:10263000D3F83C14C2F86815D3F84014C2F86C15EE
:10264000D3F84434C2F87035FFF78EFF18B13B4B16
:102650003B4AC3F88C26FFF787FF18B1394BFB22A2
:10266000C3F81825FFF780FF70B14FF080414FF09D
:102670008053D1F8E42ED3F8583222F00F0203F041
:102680000F031343C1F8E43EFFF76EFF20B12E4B5A
:102690004FF40072C3F840264FF08053D3F8303126
:1026A000082B1AD14FF08043D3F80024D20744BF3F
:1026B0006FF00102C3F800244FF08053D3F8343197
:1026C000052B02D8214AD35C3BB14FF01023D3F83D
:1026D00008224FF08043C3F858254FF01023D3F859
:1026E0000022002A03DBD3F80432002B22DA184937
:1026F00001234FF01020C1F804351224FFF746FFE4
:10270000C0F80042FFF742FFC0F80442FFF73EFF67
:102710000023C1F80435FFF739FFBFF34F8F0D4990
:102720000D4BCA6802F4E0621343CB60BFF34F8FD6
:1027300000BFFDE7094B0A4A1A6010BD0050004077
:102740004881030000F00040009002404E49010023
:1027500000E0014000ED00E00400FA051400002054
:102760000090D00370B501250268BFF35B8FB2FA09
:1027700082F3C3F11F03DBB205FA03F422EA040477
:1027800050E8006F964204D140E8004CBCF1000FC5
:10279000F6D1BFF35B8FE7D101480B7070BD00BF6E
:1027A0000000AD0B10B50368CB40DB0714D4012348
:1027B0008B400268BFF35B8F43EA020150E8004F91
:1027C000944204D140E8001CBCF1000FF6D1BFF3E5
:1027D0005B8FEED1014810BD0148FCE70000AD0B56
:1027E0000400AD0BF7B5044618B1012822D003B0A0
:1027F000F0BD4FF080430222C3F80823C3F8040160
:10280000D3F804210122DA60074601238DF807304E
:1028100042F210754FF08046CCB1012CE7D1C7B31E
:10282000D6F80C3403F001033B70D6F80C34DA030D
:1028300021D516E04FF080430022C3F80803C3F807
:102840000021D3F8002158600DF10707DDE7B7B18B
:10285000D6F8183403F003033B60D6F81834D803D5
:10286000C5D59DF80700012803D101F0CAFC013D40
:10287000D2D1012CBBD10C4B00225A71B7E7D6F84C
:102880001834D903B3D5012001F0BBFC013DF6D1CA
:10289000ADE7D6F80C34DB03EDD5012001F0B1FC37
:1028A000013DF6D1E7E700BF90020020044B1A7902
:1028B00022B9012218609A80024870470248704786
:1028C000900200200000AD0B0C00AD0B10B54FF0D6
:1028D0008043D3F800216AB10022C3F80021D3F865
:1028E00000210122C3F80823114B587910B95A71FD
:1028F0001B6898474FF08043D3F8042172B100223F
:10290000C3F80421D3F80421D3F81824D3F81814F9
:10291000920704D10122C3F818259A6010BD022243
:10292000C3F80823024BBDE810401B68012018477C
:1029300090020020036803F01F025B09012B026074
:10294000024818BF4FF0A040704700BF000300507E
:10295000034B083033F81000C0F34010704700BF3D
:102960001800002070B500F108030C4C34F8133047
:10297000DA0505460E4607D5C3F3432304EBC3022D
:1029800054F8333052689847A3682BB1E268314657
:102990002846BDE87040184770BD00BF18000020F1
:1029A00010B4124A083032F81030D9051BD5C3F3E1
:1029B000432123F4F85322F8103002F10E040020D2
:1029C00034F8023F13F4807F03D0C3F343239942CA
:1029D00009D001303028F3D1002342F831300448C7
:1029E00010BCFFF7DFBE10BC704700BF180000200E
:1029F0008C00002038B50246FFF7AAFF094C02F10F
:102A0000080540B134F8153007495B0B03F5A27394
:102A1000002041F823001046FFF7C2FF002324F8EE
:102A2000153038BD18000020006000402DE9FF413E
:102A3000044616461D4601B34E4F00F1080837F80C
:102A400018309B0702D5FFF783FF10BB0023CDE9A9
:102A500000338DF80E308DF80F300DF10F020B465C
:102A600020460DF10E0101F019FC37F8183023F063
:102A7000020343F0010327F8183046B33D4B96F8A4
:102A800000C0726804F1080733F81710880702D5F0
:102A9000AAB139481DE021F02001C904C90C23F86E
:102AA000171062B1BCF1030FF3D872681678BCF14D
:102AB000000F11D1314A06F5A27642F826C033F84C
:102AC000172022F01C0242EA8C0223F8172045BB93
:102AD0002B4804B0BDE8F081B20002F1804202F55B
:102AE000C04241EA4631D2F8100520F00300C2F896
:102AF0001005D2F8100520F44F3020F44070C2F8D1
:102B000010052002D2F810E500F47C5040EA0C4099
:102B100040EA0E0041F0200123F81710C2F810051A
:102B2000CDE7D5E900672046FFF73AFF002ECFD06A
:102B3000104DD5E90023964201D19F4218D011488B
:102B40000DF10F01FFF70EFE0D4B9842C1D19DF81C
:102B50000F2045F8326005EBC20308345F6035F89A
:102B6000143043EA422343F4807325F81430AFE76E
:102B70000022EEE7180000200400AD0B00600040CA
:102B80000000AD0B8C000020F0B5044685B0154662
:102B900019B3334E00F1080736F81720930703D412
:102BA000FFF7D6FE002858D112F01C0F02D04B7848
:102BB000012B52D001238DF80F300023CDE90013F3
:102BC0004A1C8B1C20460DF10F0101F067FB36F803
:102BD000173043F0030326F8173015B9214805B024
:102BE000F0BD1F4E04F1080736F81700830734D5EF
:102BF00095F800C06146890020F0200001F1804175
:102C0000C00401F5C041C00C26F817000023C1F82C
:102C100010356A78002AE1D0D1F81035AD7823F468
:102C2000991323F4F853C1F81035D1F810E52302B5
:102C300003F47C53120402F4403243EA0E031343BC
:102C40002A0502F4801240EA4C30134340F0200081
:102C500026F81700C1F81035C0E70348BFE700BFEA
:102C6000180000200000AD0B0400AD0B014BC3E9C0
:102C7000020170471800002008B50246FFF768FE01
:102C800038B1054B0548083233F812305B0B0B7036
:102C900008BD0348FCE700BF180000200000AD0B92
:102CA0000400AD0B38B50F4C94F87850BDB96022D4
:102CB000294604F1100001F064F90620FEF7E2F95C
:102CC000094B0A48C3F87C51D3F87C214FF00042ED
:102CD000C3F80423012384F87830636738BD0448BF
:102CE000FCE700BF18000020006000400000AD0BB2
:102CF0000500AD0B034B93F87800003818BF012096
:102D0000704700BF1800002001460148FFF74ABD88
:102D10008800002001460148FFF724BD88000020FC
:102D200037B50446FFF714FE04F108021E4B33F8D2
:102D30001230E8B113F002051AD15B0B9A0002F1D0
:102D4000804000F5C24002F1804202F5C0420560B9
:102D50000068D2F8100540F00100C2F8100529B152
:102D6000012202FA03F3114AC2F8043303B030BD62
:102D7000C3F38203042B12D0052B12D001A80194B7
:102D8000FFF7D8FD019BD0F81015D94001F00101E3
:102D90000231204603B0BDE8304001F0C8BA03213B
:102DA000F7E70221F5E700BF1800002000600040AF
:102DB00008B50246FFF7CCFDC0B102F108010E4B89
:102DC00033F81130990711D45B0B01229A409B0014
:102DD0000A4903F1804303F5C043C1F80823D3F83F
:102DE000102522F00302C3F8102508BDBDE80840F5
:102DF0000021104601F09BBA18000020006000403E
:102E000013B50E4B00F10802044633F81230DB070D
:102E100011D5FFF7CDFF2046FFF7ECFD01A8019487
:102E2000FFF788FD019B03F5E073022240F82320A1
:102E3000034802B010BD0348FBE700BF18000020A4
:102E40000000AD0B0400AD0B2DE9F04F684B694855
:102E50006949002687B0012234461D6835B1D0F893
:102E6000045315421EBF1C601D68164304338B4279
:102E70004FEA4202F1D1DFF87C91D9F87C31002B86
:102E800000F099804FF0A043D3F820250492C3F8B6
:102E90002025D3F820280592C3F820284FF00008F9
:102EA0000DF1100A4FEA481300934FF0010B49E06F
:102EB000009B524A94FAA4F4B4FA84F41C44E00847
:102EC00004F10803039432F813701AF8003004F088
:102ED00007020BFA02F223EA02030AF8003003A801
:102EE000FFF728FD039B03F5E073B90850F8233082
:102EF000C7F382054A072F46C3F301432CD520466A
:102F00003946DDB2FFF72EFD03A80394FFF712FD4B
:102F1000039B03F5E07350F82330C3F301439D4254
:102F200007D10021204601F002FA2946204601F08F
:102F3000FEF903A80394FFF7FDFC039B0BFA03F3D0
:102F4000C0F820355AF82840002CB1D1B8F1000F54
:102F50001DD14FF00108A5E7022B0CD1032120461B
:102F600001F0E5F905F00503012BE2D139462046D1
:102F7000FFF7F8FCDDE702212046019301F0D7F9C5
:102F8000032DF3D0019B032BD3D1022DEDE74FF09E
:102F9000A042C9F87C41D9F87C311949D2F82035D2
:102FA0000493C2F82035D1F8202505921343C1F8C7
:102FB00020257FF473AF012416B907B0BDE8F08F68
:102FC00096FAA6F3B3FA83F304FA03F29B0003F133
:102FD000804303F5C04326EA0206D3F81005D3F870
:102FE0001015C0F30520C1F30141FFF7BBFCE3E777
:102FF0000061004000600040206100401800002097
:10300000000300500F4B70B553F82040013053F8C7
:103010002060A64200D870BDD4E900352846984704
:103020006DB138B10028B8BF4042EB68FF28A8BF97
:10303000FF201870EA68537843F001035370083496
:10304000E7E700BFE848010008B50A4B012203206A
:103050001A70FFF7D7FF00F011FE0420FFF7D2FF30
:1030600000F0F0F8FDF7B6F9034A137B23F00103F3
:10307000137308BDD10200204801002008B50348A1
:10308000034A0021121A01F094F908BDA80000209B
:10309000D402002070B5002386B00122CDE90423BC
:1030A000134E144D01930F22CDE902321249182319
:1030B00003FB005506EBC01604464FF4C07000FB3E
:1030C00004110E4B00954FF4A072304600F088F8C2
:1030D000737B0B4AEE6023F0040373734FF40463B5
:1030E00004FB033313442C756B6006B070BD00BF46
:1030F000C800002098020020400B0020FD32010093
:103100000003002080B50020A6B0FFF77BFF2D4B09
:1031100083F308882C4D2D4E6B692D4F43F40073BB
:103120006B610024E02385F82230EC772C766C76F6
:10313000AC7685F820406B6A43F4E0236B6285F837
:103140002340FEF7B9F9FDF77FFF4FF0FF33AB6285
:10315000EB62FEF795FAFEF7FBF940F20113ADF8CA
:10316000243006ABB360CDE91F44229401F0EEF8A1
:103170000120FFF747FF0220164DFFF743FF00F045
:1031800015FB154BF5610593012314490094CDE916
:1031900003434FF480623B46CDE90144284600F0EA
:1031A0001FF86A7B064622F0040228466A7301F083
:1031B0006DF92046FFF76EFF3A4631462846FEF786
:1031C00043F800BF400B002000ED00E09802002013
:1031D00049300100480100205A490100C00C00207C
:1031E0002DE9FF410E9E0673042646730D9E8673DD
:1031F00000F158050F46D61DC0E916550C9A00255A
:1032000026F007064037C0E90655C0E91976856003
:10321000C573C56606F1400802920B9A0192884474
:103220000A9A009242460446FDF7DCFF044B6565AE
:103230009B6803B11B6F2367404604B0BDE8F08173
:10324000980200202DE9F043294C2A4D87B02646EC
:10325000AE4204F130040FD300F078FA244CDFF8CA
:1032600098904FF4004640F2E737AC4220D307B0C5
:10327000BDE8F04300F07EBA54F8043C059354F8DE
:10328000103C049354F8143C039354F8183C0293F4
:1032900054F81C3C019354F8203C009354E90A2351
:1032A00054E90C01FFF79CFF54F8303C5E65CEE713
:1032B000636A5A1C0DD023EAE37300213846C3FB2E
:1032C000060151EAC333D4F8008004D1404600F02F
:1032D000EDF93034C9E74FF47A720023FCF710FFA0
:1032E00002460B4608F11800494600F0D5FBF0E70E
:1032F000CC470100CC470100F943010008B50B4C55
:103300000B4D4FF02002EFF3118382F31288BFF3CD
:103310006F8F01F013F92B78A06113B9FDF79AFEB6
:10332000EFE7FDF7C3FD0028EBD1F7E79802002097
:10333000D102002038B504464FF02003EFF3118589
:1033400083F31288BFF36F8F01F0B0F848B1002209
:10335000826701F09BF829460548BDE8384000F037
:1033600093B9D4E902329A4218BF0133A360F2E75D
:10337000D202002013B54FF02004EFF3118184F343
:103380001288BFF36F8F846844B1013C846081F37D
:103390001188BFF36F8F002002B010BD52EA030402
:1033A00006D181F31188BFF36F8F6FF00F00F3E741
:1033B000CDE900230246024800F048F9ECE700BFDF
:1033C000D202002038B5074D2C6854B1FFF722F81F
:1033D000054B04441C6128680021BDE8384001F019
:1033E000BDB838BDC80200209802002038B50D4D88
:1033F0002B4653F8204F9C4200D004B9EC68AB68D0
:1034000038B95A7BD20604D1A26912B9DA897F2A67
:1034100005D89C4202D02046FFF7D4FF2346EB613B
:1034200038BD00BF9802002070B590F90D20437B95
:10343000002A014604DA03F07F03437300F0CAFF59
:103440004B7B154A63F07F0310464B7350F8203FC7
:10345000546A834208BF002323B9C1E900042160F4
:1034600051620CE091F90E5093F90E60B5420ED006
:10347000AE420CDD5868C1E90030016059609068C7
:10348000431A5842BDE870405841FFF7AFBF9C4215
:10349000E3D01B68E0E700BF9802002070B490F909
:1034A0000D30427B002B29DBD30627D183692BBB50
:1034B000134962F07F0242730A4652F8204F944249
:1034C00018BF23464C6A23B9C0E900242060486233
:1034D0000CE090F90E5093F90E60B5420AD0AE425E
:1034E00008DD5A68C0E900321060586070BC0020E6
:1034F000FFF77CBFA342E7D01B68E4E770BC7047CE
:103500009802002008B590F90D20437B002A01465F
:1035100004DA03F07F03437300F05CFF044B986808
:10352000431A58425841BDE80840FFF75FBF00BF4B
:103530009802002070B515461C46064600F07EFF36
:10354000B4F1FF3F08BFB5F1FF3F08D02A4623463C
:1035500006F118000249BDE8704000F09DBA70BD48
:10356000F9430100F8B504460D464FF02003EFF390
:10357000118783F31288BFF36F8F00264FF4004C3E
:1035800040F2E73031464FF47A720023E4FB0C013D
:10359000FCF7B6FDB44202DD0228B8BF0220074A9C
:1035A000074B1060074A98681E611560FFF70AFF15
:1035B00087F31188BFF36F8FF8BD00BFC8020020EA
:1035C00098020020C402002038B54FF02003EFF32A
:1035D000118583F31288BFF36F8F174B174A9C68CE
:1035E00011688C4207D12046FFF7ECFE85F3118865
:1035F000BFF36F8F38BD00211160114A1268C2B14C
:10360000E2897F2A15D8627BD20612D10D4A94F93D
:103610000E10126891420CDB0B4A944209D01A69D1
:10362000824203DC2046FFF7FFFEDCE7121A1A6134
:10363000DCE70022FBE700BF98020020C002002068
:10364000C8020020C4020020C800002070B50C4849
:103650000C4D86682E600C461146DDE904234FF0C0
:103660002006EFF3118586F31288BFF36F8F806811
:10367000FFF760FF2046BDE87040FDF75FBD00BF6B
:1036800098020020C002002049B9EFF3058030B94C
:10369000054BDA699B689A4201D0FDF74FBD81F373
:1036A0001188BFF36F8F70479802002010B54FF05C
:1036B0002002EFF3118482F31288BFF36F8F427BF5
:1036C000510704D484F31188BFF36F8F10BD22F02B
:1036D00004024273FFF7E2FE21460248BDE81040B3
:1036E000FFF7D2BFD202002070B50446183000F0B8
:1036F0000FFF4FF02003EFF3118683F31288BFF31F
:103700006F8F94F90D20637B002A05DA03F07F03A5
:103710006373204600F05EFE0B4D637BA86843F0A8
:1037200010036373031B58425841FFF75FFE86F393
:103730001188BFF36F8FAB68A34203D1BDE870401F
:1037400000F0DCBE70BD00BF980200204FF02003E7
:10375000EFF3118183F31288BFF36F8F044B9A68E4
:10376000D37B013BD37381F31188BFF36F8F704715
:103770009802002010B54FF02003EFF3118483F37B
:103780001288BFF36F8F084B9A68D37B0133D373D2
:103790000020FFF72BFE84F31188BFF36F8FBDE885
:1037A000104000F0ABBE00BF98020020044B002187
:1037B00003F12002C3E908220846FFF7D3BE00BF89
:1037C00098020020F8B54FF02003EFF3118583F342
:1037D0001288BFF36F8F19498868437B03F07F031A
:1037E000437300F0F7FD8B685A7B084662F07F0256
:1037F0005A7350F8202F4C6A824208BF002222B927
:10380000C3E9000423604B620CE093F90E6092F967
:103810000E70BE420ED0B7420CDD5168C3E90021E4
:103820000B6053600120FFF7E1FD2846BDE8F8403A
:10383000FDF784BCA242E3D01268E0E798020020C2
:1038400050EA01032DE9F04105460E4603D1FFF78A
:10385000B9FF00202CE0831C71F1FF332ADB00F05C
:1038600099FE2C184FF02003EFF3118883F3128890
:10387000BFF36F8F114F124BB8681860FFF742FE0D
:10388000B86810492A463346183000F005F9BA687E
:10389000537B43F0100353734046FDF74FFC00F099
:1038A00079FE201A63EB0303012873F10003D0DBD8
:1038B000BDE8F0816FF00104241AD3E798020020DC
:1038C000C0020020F9430100B1F1FF3F08BFB0F191
:1038D000FF3F08B506D1084B9868FFF705FF4FF08A
:1038E000FF3008BDFFF7ACFF4FF47A7380FB030392
:1038F000C00B40EA4340F4E798020020014B98686F
:10390000704700BF980200202DE9F04104464FF0B7
:103910002003EFF3118683F31288BFF36F8F037BCD
:10392000D9070BD586F31188BFF36F8F404080F322
:1039300011884FF0040002DFBDE8F081437B1A07D5
:1039400004D586F31188BFF36F8FF5E723F02002CB
:1039500042F00801D20920D14173A36813B1204677
:1039600000F040FD04F1180000F0D2FD04F158070A
:103970004FF00008A56DBD4200D0B5B90120FFF79A
:1039800035FD104B9B68A342DBD1EFF30583002B81
:10399000D7D13046FDF7D2FBD3E703F05F0343F006
:1039A0000803437300F016FDD7E7284600F01AFD20
:1039B00005F1180000F0ACFDC5F878802846FFF747
:1039C0006DFDD7E79802002008B50648064A07496A
:1039D000121A00F0F0FCBDE80840054A0549064807
:1039E00000F0E9BC00000020A4000020A449010070
:1039F00000000000A449010000000020034B1B68E8
:103A00000BB9FEF707BD0020704700BFCC020020B5
:103A100010B5114B1C689C420AD1FFF7EFFF6FF005
:103A200000400E4B1B6913B19842A8BF184610BD49
:103A3000FFF7E4FF002CF2D0D4E904321B1A62EB4A
:103A4000E072B3F1004F72F10001E8DA002AACBF76
:103A500018460020E5E700BF9400002098020020EF
:103A600030B570B10B4B5B6898420AD0036843B124
:103A7000D3E90421D0E90445121941EB0501C3E95A
:103A80000421D0E9003213605A600023C0E90033FA
:103A900030BD00BF94000020B3F1FF3F08BFB2F17A
:103AA000FF3FF8B504461D46164661D081604FF0D1
:103AB0002003EFF3118783F31288BFF36F8F013276
:103AC00075F1FF3324DA3049D1E900206FF00103AA
:103AD0009B1A4FF0FF3262EB00009E1B60EB05006B
:103AE000012E70F1000301DA01260020C4E9046010
:103AF000264ED6F800C07568B44508BF4FF0000CDC
:103B0000BCF1000F0DD1C4E900652C6074601CE0AD
:103B1000FFF774FF013645F10005361845EBE070FC
:103B2000E4E7DCE90420D4E90431934271EB000EB0
:103B30001FDAD21ADCF8043060EB0100CCE9042073
:103B4000C4E900C31C60CCF804403368B3420BD016
:103B50009C4209D1FFF75CFF18B10D4B1B698342F2
:103B600002D00021FEF724FC87F31188BFF36F8F8A
:103B7000F8BD9B1A61EB0001AC45C4E90431C2D029
:103B8000DCF800C0BCE700BFC801002094000020A2
:103B9000980200202DE9F8430446FFF715FD4FF089
:103BA0002003EFF3118683F31288BFF36F8F234F47
:103BB000DFF88C80D8F80000224A3C604045D2E90A
:103BC000003E4FEAE4710BD050B1D0E9045CAC4246
:103BD00071EB0C0916DA2D1B6CEB010CC0E9045CCF
:103BE000E3184EEB01010024C2E900313C60FFF70D
:103BF0000FFF2146FEF7DCFB86F31188BFF36F8FC2
:103C0000BDE8F883EB184EEBE571C2E90031002204
:103C10000023C0E90423FFF723FF86F31188BFF3D5
:103C20006F8F836898474FF02003EFF3118683F37B
:103C30001288BFF36F8F3C68641BBBE7CC02002087
:103C400094000020C801002010B54FF02003EFF3CE
:103C5000118483F31288BFF36F8FFFF7CFFE064AFC
:103C60000346D2E90001181841EBE37184F311888F
:103C7000BFF36F8F10BD00BFC8010020014800F0E6
:103C800006B800BF5F4901007047002070470FB4BD
:103C900007B504A951F8040B0191FCF7CDFB03B063
:103CA0005DF804EB04B07047044608B508461146B9
:103CB0001A46A047FFF722FEFDF734FC038B13F0F2
:103CC000070305D10368002B0CBF002003207047B9
:103CD000022B05D1408BB0FA80F04009800070477C
:103CE000012B05D10368002B0CBF00200520704775
:103CF0000020704710B50C4600B111B96FF01500E7
:103D000010BD081D00F095F80028F9D1A368032B19
:103D1000F6D9F3E72DE9F0410D4607461946281D6F
:103D200090461E4600F096F8044638B133464246A7
:103D300029463846A446BDE8F0416047BDE8F08119
:103D400010B44FF02004EFF3118284F31288BFF314
:103D50006F8F416110BC0121FCF77CBB38B50C466C
:103D6000054658B151B10B6843B14B6833B11C22C1
:103D7000002100F006F92C61002038BD6FF015001D
:103D8000FBE770B505460E46FFF7B4FF041E15DBD2
:103D90004FF02003EFF3118283F31288BFF36F8F8C
:103DA0006B8B2C8B4FF6FF718B4204F0070407D10D
:103DB00082F31188BFF36F8F6FF00A04204670BD45
:103DC000022C0CD101336B8382F31188BFF36F8F08
:103DD0000023224631462846FFF79CFFEEE7062CDB
:103DE00014D8DFE804F004131313041A04000023AA
:103DF00033606B683BB9C5E90066ACB9022128465F
:103E0000FCF728FBDAE71E606E60F6E782F31188A4
:103E1000BFF36F8F6FF00404D0E782F31188BFF314
:103E20006F8F6FF08504C9E782F31188BFF36F8F3E
:103E3000C4E7034658B1426802F00302012A03D0E6
:103E4000032A04D1026812B10020986070476FF015
:103E5000150070474268816002F00302032A4FF0A8
:103E6000000203460CBF006810465A6070472DE9F7
:103E7000F84F9A46D3786F2B80460F461546A3F12C
:103E8000410B29D024D8582B0CBF10260A26DDF868
:103E900028903246002340463946FCF731F9092A7A
:103EA000D4B21ED83034B045E4B277F1000709F837
:103EB000014D01D3D14511D82B789B0605D5082E8D
:103EC00015D1AB7843F00803AB704846BDE8F88FD6
:103ED00003F0F703702BD7E70826D8E780460F4694
:103EE000D7E7BBF1190F94BF37345734DBE7102EF7
:103EF000EBD1AB7843F01003E6E72DE9F04107463C
:103F0000884615461E461446B44205D30EB1601BC2
:103F100008E02378002BFAD014F8010B4146B8478B
:103F20000028F1DABDE8F081704700F027BA0146B9
:103F3000006800F023BA00210120FFF7F6BF08B5A2
:103F4000FDF7D4F8BDE80840FDF7B4B903460020FA
:103F50001A5C02B970470130FAE7034600201A5C88
:103F60000AB1884200D170470130F8E710B5431E0E
:103F70000A44914200D110BD11F8014B03F8014FE2
:103F8000F7E7C9B202440346934200D1704703F8F1
:103F9000011BF9E74FF0FF307047062808D14FF0BA
:103FA00080430122C3F80025BFF34F8F20BFFDE7F8
:103FB0007047002383F31188BFF36F8F7047F0B40D
:103FC00003460A461979DB8800681343DC028768D8
:103FD000066906D513F4402F03D0DA0748BF83F4EF
:103FE0004023346801258D4023F48012DB074CBF49
:103FF0002C43AC4334603B68F0BC18470369C9B23A
:104000000C2201FB0233186C00F0070070474FF0E0
:104010002003EFF3118283F31288BFF36F8F0368DD
:1040200003F0C00343F00203036082F31188BFF37F
:104030006F8F704770B5C9B203694FF02004EFF37A
:10404000118584F31288BFF36F8F0C2606FB0134B1
:10405000246C14F0C00408D0A24206D085F3118865
:10406000BFF36F8F4FF0FF3070BD06FB01330122AD
:104070001A6485F31188BFF36F8F436803EBC103A4
:104080005B6898470020EFE78022FFF7D3BFF8B5C1
:10409000069F0469C9B24FF02005EFF3118685F33E
:1040A0001288BFF36F8F0C2505FB0144256C05F0CA
:1040B000070CBCF1010F0CD1276486F31188BFF304
:1040C0006F8FC4E90E23436853F8313098470020BE
:1040D000F8BD05F0C005AF4286F31188BFF36F8FBE
:1040E0000CBF6FF077004FF0FF30F1E713B580247D
:1040F0000094FFF7CCFF02B010BD10B40069CBB242
:104100001C2403FB0400002110BC1047002000F019
:1041100087B8002000F0C0B81046FFF70BB943681D
:104120005B68D3F810350B600020704743685B680C
:1041300002EA010021EA0201C3F80805C3F80C15E0
:104140000020704743685B680020C3F8081570477B
:1041500043685B680020C3F80C15704743685A68D1
:10416000D2F8043521EA03000B40C2F80805C2F872
:104170000C350020704710B503695868F8B18842C3
:1041800019D19C6808685860A14200D1986000204D
:1041900008602AB15A680A609A68596002B9996041
:1041A000002010E0814206D10868206098688142B2
:1041B000EDD19C60EBE7044600680028F2D1002AAC
:1041C000E8D16FF0150010BD02690B4692E80300BC
:1041D00083E8030000207047704730B543681360E0
:1041E000057A446804EBC504A34202D36FF00100D2
:1041F00030BD5C798C4201D00833F0E70020F7E74E
:10420000004700F0CBB908B50020FCF749FF08B91A
:10421000FCF738FF4FF080430022C3F8182508BD93
:1042200008B510B101282CD008BD4FF08042D2F85B
:104230001834D2F81814C8030BD4D2F81434D907A0
:104240000FD5D2F81C349B0708D40223C2F80433DC
:10425000EAE703F00303012B04D013B10020FEF7BB
:10426000C1FA00234FF08042C2F818350023C2F88B
:104270000431D2F804310223C2F8043301239360DD
:10428000D2E74FF080430022C3F80021D3F8002189
:10429000C3F804031860C7E7FEF7A4BAF7B50190A6
:1042A00001A8DDE9084716461D46FEF743FB019BC2
:1042B000B6F1000C18BF4FF0010C00EB83000B1E91
:1042C00018BF0123002D43EA4C0314BF4FF00C0C20
:1042D0004FF0000C002C43EA0C0314BF4FF4E06CC9
:1042E0004FF0000C002F43EA0C03D0F8002714BF56
:1042F0004FF4403C4FF0000C43EA0C0322EA030366
:1043000001B109780EB13678760019430DB12D78D8
:10431000AD0031430CB12478240229430FB13F781A
:104320003F040C433C43C0F8004703B0F0BD1FB549
:104330000DF10F03019300238DF80F1000931A461F
:104340001946FFF7ABFF05B05DF804FB704740B1BD
:10435000C368587810F001001EBF1878B0FA80F0DA
:10436000400970474FF02002EFF3118382F3128867
:10437000BFF36F8FFEE708B5FFF7F4FFF8B505460A
:104380000E464FF02003EFF3118783F31288BFF33B
:104390006F8FFFF7B3FA314604462846FFF7EBFF6D
:1043A00087F31188BFF36F8F2046BDE8F840FDF713
:1043B000B9B8FFF7E6BDFFF7D9BDEFF305800038C8
:1043C00018BF0120704708B5FCF734FDBDE8084070
:1043D000FFF702BFD0E9003213605A600023C0E942
:1043E0000033704708B5FFF7F5FF437B23F0020366
:1043F00043730023836008BD10B501464FF02003CE
:10440000EFF3118483F31288BFF36F8F10F80B3C26
:1044100013F0280F0DD151F8103C18380BB1FFF7ED
:10442000E1FF11F80B3C23F0140301F80B3CFFF7FC
:1044300035F884F31188BFF36F8F10BD38B504468B
:104440000D46FFF75FF8637B43F002036373E5B14A
:10445000A5602B689D4209D16B68C4E900531C60BC
:104460006C6012E06A689342F6D01B68002BF3D0B0
:1044700094F90E2093F90E108A42F3D09142F1DDA7
:104480005A68C4E9003214605C6038BD10B54FF062
:104490002003EFF3118483F31288BFF36F8FFEF7CD
:1044A000FDFF84F31188BFF36F8F10BD38B54FF057
:1044B0002003EFF3118583F31288BFF36F8F046835
:1044C000A0420DD034B12046FFF78CFF04F1180054
:1044D00000F01EF885F31188BFF36F8F204638BDBA
:1044E0000024F7E7034620B9EFF305820AB9FCF789
:1044F00025BE83F31188BFF36F8F70474FF0200301
:10450000EFF3118083F31288BFF36F8FFFF7EABFD9
:1045100010B54FF02002EFF3118482F31288BFF33D
:104520006F8F03683BB1FFF79BFA002084F311887B
:10453000BFF36F8F10BD6FF01500F7E710B54FF0A8
:104540002003EFF3118483F31288BFF36F8FFFF71B
:104550005FFA84F31188BFF36F8F10BD70B5044606
:104560000D464FF02003EFF3118683F31288BFF35B
:104570006F8FFFF74DFA012807DDA04205DBA0424F
:104580002946A8BF2046FDF713FF86F31188BFF325
:104590006F8F70BD08B5FFF757FB08BD08B1FDF779
:0445A000B9B87047EF
:0845A40090BBFF7F0100000045
:1045AC00ED16010000000000E1170100EC450100D0
:1045BC00751B010004460100751B01001C4601001F
:1045CC00BD1E010034460100511A0100000000001C
:1045DC004D2201000000000029170100000000001E
:1045EC001549010040480100504801009C00002082
:1045FC0014020020DE470100244901006C48010030
:10460C008C4801009E00002068020020D847010061
:10461C00324901007C4801008C480100A0000020B8
:10462C0074020020D247010040490100B04801004B
:10463C00D0480100A20000200C000020CC47010053
:10464C00CD2801000142010000000000373F0100AD
:10465C0000000000373F010000000000373F010060
:10466C0000000000373F010000000000373F010050
:10467C00492E01000142010000000000373F0100FB
:10468C0000000000373F010000000000373F010030
:10469C0000000000373F010000000000373F010020
:1046AC0000000000373F010000000000373F010010
:1046BC0000000000373F010000000000373F010000
:1046CC0000000000373F010000000000CD22010077
:1046DC0000000000373F010000000000373F0100E0
:1046EC0000000000373F010000000000373F0100D0
:1046FC0000000000373F010000000000373F0100C0
:10470C0000000000373F010000000000373F0100AF
:10471C0000000000373F010000000000373F01009F
:10472C0000000000373F010000000000373F01008F
:10473C0000000000373F010000000000373F01007F
:10474C0000000000373F010000000000373F01006F
:10475C0000000000373F010000000000373F01005F
:10476C0000000000373F010000000000373F01004F
:10477C0000000000373F010000000000373F01003F
:10478C0000000000373F010000000000373F01002F
:10479C0000000000373F010000000000373F01001F
:1047AC0000000000373F010000000000373F01000F
:1047BC0000000000373F010000000000373F0100FF
:1047CC0000800080FF7F00800080FF7F00800080E1
:0847DC00FF7F00800080FF7FD9
:0C47E400FFFFFFFFFFFFFFFFFFFFFFFFD5
:1047F0000338FDD8704700000000002000000000D2
:1048000000000B06020000000C4801000000000040
:104810000649010026000207000000200E490100A1
:1048200022000B11044601000900000004460100AB
:10483000000000009D1701006D170100000000003E
:1048400089180100211901000D41010013410100E7
:10485000ED18010089400100ED400100000000005A
:10486000FD3F01000000000000000000FFFF00000D
:10487000000300500000000001000000FFFFFFFFE8
:10488000000000500000000000000000F91B0100C3
:104890001F4101002D41010045410100514101002E
:1048A0005D410100A11A01007741010000000000F4
:1048B000B448010000200040C04801000100000091
:1048C000C848010002000000230000002A00010087
:1048D000211D0100111F0100451D0100551D010092
:1048E000C9410100F5FFFFFFAC450100AC450100E7
:1048F000DC450100E4450100EC450100EC45010008
:10490000286E696C2900464C4153485F3000535271
:10491000414D5F3000636C6F636B4034303030303A
:10492000303030006770696F4035303030303330B0
:1049300030006770696F40353030303030303000D3
:1049400075617274403430303032303030000000E5
:10495000000000010100000000006D61696E002A86
:104960002A2A20426F6F74696E67205A65706879D1
:1049700072204F53206275696C64207A6570687983
:10498000722D76332E322E302D323234362D673062
:104990003431653835333033633766202A2A2A0AA2
:0449A0000000000013
:1049A4008B3C0100FFFFFFFF953F010000C20100A7
:1049B400000103000090D00300000000000000008C
:1049C40000000000000000000000000000000000E3
:1049D40000000000000000000000000000000000D3
:1049E40000000000000000000000000000000000C3
:1049F40000000000000000000000000000000000B3
:104A040000000000000000000000000000000000A2
:104A14000000000000000000000000000000000092
:104A24000000000000000000FF0000000000000083
:0C4A34000000000094000020940000200E
:084A400000000000000000006E
:044A480015E015E080
:04000003100014F5E0
:00000001FF
